:020000040800F2
:10000000906400209D0100085D320008B12C0008BA
:100010005932000811080008993D0008000000004E
:100020000000000000000000000000007136000821
:10003000690A000800000000B13300089536000886
:10004000B7010008B7010008B7010008B7010008B0
:10005000B7010008B7010008B7010008B7010008A0
:10006000B7010008B7010008B70100086D090008D2
:10007000B70100087D090008B7010008B7010008B2
:100080008D090008B7010008B7010008B701000892
:1000900015080008B7010008B7010008B7010008FB
:1000A000B701000881370008B7010008B701000850
:1000B000B7010008B701000891370008B701000830
:1000C000B7010008B7010008B7010008B701000830
:1000D000B7010008F53C0008053D0008B70100081D
:1000E000B7010008B7010008B7010008B701000810
:1000F000B7010008B7010008B7010008B701000800
:10010000B7010008B7010008B7010008B7010008EF
:100110003539000845390008B7010008B701000863
:10012000B70100089D090008AD090008B7010008E3
:10013000B7010008B7010008B7010008B7010008BF
:10014000B70100088D080008B7010008B7010008D2
:10015000B7010008BD090008CD090008153D0008D9
:10016000B7010008B7010008B7010008B70100088F
:10017000B7010008B7010008B7010008000000003F
:10018000B7010008B7010008DFF80CD000F02EFB23
:10019000004800476D6300089064002006488047CF
:1001A00006480047FEE7FEE7FEE7FEE7FEE7FEE75C
:1001B000FEE7FEE7FEE7FEE7653700088901000875
:1001C0002DE9F05F0546002092469B46884606468C
:1001D000814640241BE0284641464746224600F01F
:1001E0004EFA53465A46C01A914110D3114618464A
:1001F000224600F035FA2D1A67EB01084F462246D9
:100200000120002100F02CFA17EB00094E41201EBE
:10021000A4F10104DFDC484631462A464346BDE8E6
:10022000F09F40EA01039B0703D009E008C9121FB1
:1002300008C0042AFAD203E011F8013B00F8013BA0
:10024000521EF9D27047D2B201E000F8012B491ECC
:10025000FBD270470022F6E710B513460A46044663
:100260001946FFF7F0FF204610BD421C10F8011B95
:100270000029FBD1801A7047034611F8012B00F8C2
:10028000012B002AF9D1184670472DE9FE4F804610
:1002900081EA0300C00F0C46009021F0004123F0DA
:1002A0000045B8EB0200A94105D2404621469046E0
:1002B0001C460B46024623F00040104347D0270D52
:1002C000C7F30A00C3F30A510290401A0190402874
:1002D0006BDAC3F3130040F4801B0098924620B100
:1002E0000023D2EB030A63EB0B0B01985946C0F1D4
:1002F0004002504600F0B4F906460D4650465946B5
:10030000019A00F0CCF910EB08006141002487EA63
:10031000115284EAE7731A4340D0009A62B3019AFB
:10032000012A4FEA075215DC001B61EB02014FF076
:10033000004202EA0752CDE90042001C41F580115B
:1003400032462B4600F003FA03B0BDE8F08F40467A
:100350002146F9E7001B61EB0201001C41F5801307
:1003600000185B412018A2F5001747EB030140EA93
:10037000D570B6196D4111E06D084FEA360645EAB1
:10038000C0754FEA0752001B61EB0201001C41F5EA
:10039000801149084FEA30000019514132462B467E
:1003A00003B0BDE8F04F00F0C3B90098012240004F
:1003B0000023D0EB020263EBE073009821464FEA82
:1003C000E074B8EB000061EB0401E9E783F000435F
:1003D0005BE781F0004158E72DE9FE4F81EA030415
:1003E00004F0004421F0004100944FF0000B23F092
:1003F000004350EA01045ED052EA03045BD0C3F329
:100400000A54C1F30A552C44A4F2F3340194A0FB1E
:100410000254C1F3130141F48011C3F3130343F4F5
:10042000801301FB024400FB034E840A970A44EA4E
:10043000815447EA8357A4FB076802958D0A05FBA0
:1004400007854FEA932C04FB0C542705029D4FEAC5
:10045000065847EA1637B5EB08056EEB070C870E12
:10046000920E47EA811742EA8312A7FB0201B6EB1C
:100470000B0164EB00042B0D43EA0C335E1844EBD4
:100480001C50DA465146E7FB0201C5F313044FEA5C
:100490000B3343EA14534FEA0432019C43EA060348
:1004A000A4F10C040294009CCDE900B400F04FF9D3
:1004B00003B0BDE8F08F00200146F9E72DE9F04DCB
:1004C00081EA030404F0004B21F0004514464FF08C
:1004D000000A23F0004150EA050220D054EA01024C
:1004E0001DD0C5F30A570246C5F31303C1F3130029
:1004F000C1F30A5640F4801543F48013A7EB0608B5
:10050000101BD64608F2FD3873EB050002D308F144
:10051000010801E092185B41B8F1000F03DA0020F6
:100520000146BDE8F08D00204FF480110646844658
:100530000EE0171B73EB050705D3121B63EB0503D6
:1005400006434CEA010C49084FEA300092185B411F
:1005500050EA0107EDD152EA030012D082EA04000A
:1005600083EA0501084305D0101BAB4106D20122E6
:10057000002306E000224FF0004302E06FF001028A
:1005800053101AEB06004CEB085110EB0A0041EB3C
:100590000B01BDE8F04D00F0CBB80EB5C10F80EAFD
:1005A000E0700844CA07002140F233438DE80E0092
:1005B0000A460B4600F0CBF803B000BD0EB540F282
:1005C000334102910021CDE900110A460B4600F0AB
:1005D000BEF803B000BD00F0004230F000400AD089
:1005E000C10D01F56071C0F3160042EA0151C20865
:1005F00040071143704700200146704701F0004357
:1006000030B421F0004150EA010206D00A0DA2F5F3
:100610006072C1F31301002A02DC30BC0020704775
:10062000440F44EAC104C100E01830BC00EBC250E2
:1006300000F047B830B50B460146002020220124C7
:1006400009E021FA02F59D4205D303FA02F5491BA0
:1006500004FA02F52844151EA2F10102F1DC30BDB6
:10066000202A04DB203A00FA02F100207047914072
:10067000C2F1200320FA03F3194390407047202A67
:1006800004DB203A21FA02F00021704721FA02F33C
:10069000D040C2F120029140084319467047202AF9
:1006A00006DBCB17203A41FA02F043EAE07306E09A
:1006B00041FA02F3D040C2F12002914008431946AA
:1006C00070470029A8BF7047401C490008BF20F0B0
:1006D0000100704710B4B0FA80FC00FA0CF050EA48
:1006E000010404BF10BC704749B1CCF1200421FAC9
:1006F00004F411FA0CF118BF012121430843A3EBC4
:100700000C01CB1D4FEA00614FEA102042BF0020D0
:1007100010BC704700EBC35010440029A4BF10BCAC
:100720007047401C490008BF20F0010010BC704712
:1007300010B5141E73F1000408DA401C41F10001E9
:1007400092185B411A4301D120F0010010BD2DE940
:10075000F04D92469B4611B1B1FA81F202E0B0FA37
:1007600080F220329046FFF77BFF04460F4640EAB6
:100770000A0041EA0B0153465A46084313D011467A
:1007800053EA010019D0C8F140025046FFF777FF45
:1007900005460E46504659464246FFF761FF08435C
:1007A00005D0012004E020463946BDE8F08D002048
:1007B000054346EAE0762C4337430A986305E40A8A
:1007C000A0EB08000022FD0A44EA47540A3002D593
:1007D00000200146E9E7010510196941DDE90845F6
:1007E00000196941BDE8F04DA2E70000064C074D35
:1007F00006E0E06840F0010394E8070098471034F1
:10080000AC42F6D3FFF7C4FC509E0008709E00086F
:10081000FEE7000080B540F6E400C2F2000000F000
:10082000B3FB80BD10B582B040F6C00CC2F2000C24
:1008300040F2FF1ECCF800E04FF0000ECCE902EED3
:1008400040F22E6E0824C2F2000ECCF81040040ACA
:100850008EF80100080A8EF80200100A8EF80400D3
:10086000180A8EF8060040F6E4008EF803108EF8A1
:1008700005208EF80730C2F2000001AB61467246D7
:100880008EF8004000F02EFA02B010BD80B540F6A0
:100890000C10C2F2000000F077FB80BD10B582B0F2
:1008A00040F2D83CC2F2000C4FF4007ECCF800E0DD
:1008B0004FF0000ECCE902EE40F2901E0824C2F286
:1008C000000ECCF81040040A8EF80100080A8EF8D9
:1008D0000200100A8EF80400180A8EF8060040F68E
:1008E000E4008EF803108EF805208EF80730C2F26F
:1008F000000001AB614672468EF8004000F0F2F94C
:1009000002B010BD10B582B040F6C00CC2F2000CAF
:1009100040F2FF1ECCF800E04FF0000ECCE902EEF2
:1009200040F22E6E0824C2F2000ECCF81040040AE9
:100930008EF80100080A8EF80200100A8EF80400F2
:10094000180A8EF8060040F60C108EF803108EF888
:1009500005208EF80730C2F2000001AB61467246F6
:100960008EF8004000F0BEF902B010BD80B540F630
:100970009410C2F2000000F015FE80BD80B540F674
:100980003410C2F2000000F00DFE80BD80B540F6CC
:10099000B420C2F2000000F005FE80BD80B540F634
:1009A0001430C2F2000000F0FDFD80BD80B540F6BD
:1009B000F410C2F2000000F0F5FD80BD80B540F6F5
:1009C0007430C2F2000000F0EDFD80BD80B540F64D
:1009D0005420C2F2000000F0E5FD80BDD0F800C058
:1009E0006FF00F024AF6AB2352FA8CF2CAF6AA2332
:1009F0000146A2FB0330000905A31B5C40F2FF3057
:100A00002CEA00005F2A88BF0430C1E91603704752
:100A100000061016000610168269816AB2F5005FA2
:100A200006D06AB9022912D0012914D0D1B90EE03A
:100A3000032917D8DFE801F0020B020F01207047ED
:100A400003293CBF012070471CBF00207047C06ACB
:100A5000C0F300607047C06AA0F1C070B0FA80F0C7
:100A6000400970470020704770470000EFF3108086
:100A700072B600BFFEE7000080B543F61043C4F233
:100A80000203D3F800C04FF4407E2CF440721A6089
:100A90001A68032938BF4FEA012E42EA0E01196095
:100AA000196821F0F8011960196841EAC00040F0A6
:100AB00002001860186840F48030186080BD0000A3
:100AC00043F60040C4F20200016889050FD50168B1
:100AD00021F400710160016841F400610160016866
:100AE00021F400610160016841F400710160016856
:100AF000490558BF7047016821F4806101600168B1
:100B000041F480510160016821F480510160016865
:100B100041F480610160704743F61041C4F2020164
:100B20000A6822F440720A600A6842F004020A600D
:100B30000A6842EA002040F48030086070470000F4
:100B400043F61042C4F20202136823F440731360A8
:100B500013681360136843F001031360017070475A
:100B600080B543F6104EC4F2020EDEF800C02CF43D
:100B70004071CEF80010DEF8001041F44071CEF85C
:100B80000010DEF8001041F00101CEF80010026004
:100B9000BFF36F8F436080BD43F61042C4F2020280
:100BA000136823F440731360136843F48073136075
:100BB000136843F0010313600180704743F610424D
:100BC000C4F20202136823F440731360136843F401
:100BD00000731360136843F00103136001607047F2
:100BE00043F60C40C4F202000168C90640F6A05169
:100BF000C2F2000105D5CA6942F01002CA61102292
:100C000002600268920605D5CA6942F00802CA610C
:100C1000202202600268520605D5CA6942F0040229
:100C2000CA61402202600268120605D5CA6942F014
:100C30000202CA61802202600268920758BF7047B0
:100C4000CA6942F02002CA610221016070470000B7
:100C5000F0B581B0044640F6A05043F60C46C2F20F
:100C600000000021C4F20206C16100F05DFF31689E
:100C7000C9030DD43068C0071CBF01203060306844
:100C800010F0F20F0BD0FFF7ABFF012001B0F0BD69
:100C90000546671C06D054B9032001B0F0BD002002
:100CA00001B0F0BD3068C003E4D5002FFAD000F0E9
:100CB0003BFF401BA042F5D9EEE7000090F8202052
:100CC000013A012A04D8006800F11402002004E06F
:100CD00000F1240201204FF48021136819431160B0
:100CE0007047000010B590F820E0D0F800C0AEF1D9
:100CF000010EBEF1010FDCF808E00DD81EF0E05F38
:100D000010D0CEF3016EBEF1030F11D100F124011A
:100D100001204FF4000233E000F1240101204FF4E0
:100D200080222DE000F1240101204FF4001227E081
:100D3000012000FA0EF01860886818B14B6840EA8C
:100D4000C30001E008684005D1E9033403430CEB1C
:100D50000E10C0F88031C0F88441097D012905D109
:100D600000F5C2710B6843F480730B605168C0F8E2
:100D70008C11126800F5C071C0F888210020012292
:100D80000B681A430A6010BDB0B590F82020013AF4
:100D9000012A2FD846F20060C4F20000026842F037
:100DA00001020260026822F47C520260D1F814E071
:100DB000CC694A6A0368012C43EA022202600EF001
:100DC0001F024FF0010303FA02F2C3696FEA020C3B
:100DD00023EA0203C36113D02CBBC36803EA0C03EC
:100DE000C360CB688C8844EA034300EBCE042364E1
:100DF0000B4611E0416A41F4802141620120B0BDFF
:100E0000C3681343C3600B688C8844EA034300EB58
:100E1000CE04236401F10C038C681B8843EA04436D
:100E200000EBCE04636443688D6943EA0204D1F8A1
:100E300010E0096A002D08BF03EA0C04446043690E
:100E4000BEF1000F43EA020408BF03EA0C040129C3
:100E5000446102D1C1691143C161016821F00101FE
:100E600001600020B0BD00007047000010B590F890
:100E70002040013C012C0CD8D0F800C079B1DCF83E
:100E80001040A4070FD100F1240101204FF40012FB
:100E900070E000F1240101204FF480226AE0DCF8C8
:100EA0000C40A4076AD0046804EB011CDCF8B041D4
:100EB0000CF5D87E14F004049460DCF8B04119BF3E
:100EC000E4085460640D1460DEF80040002904F06A
:100ED0000204D460DCF8B44104F00F041461DCF8BF
:100EE000B441C4F307249461DCF8B4414FEA1444DC
:100EF0005461DCF8B8211A70026802EB0112D2F8D2
:100F0000B8214FEA12225A70026802EB0112D2F89D
:100F1000B8214FEA12429A70026802EB0112D2F82D
:100F2000B8214FEA1262DA70026802EB0112D2F8BD
:100F3000BC211A71026802EB0112D2F8BC214FEAFF
:100F400012225A71026802EB0112D2F8BC214FEA58
:100F500012429A71026802EB0112D2F8BC214FEAE8
:100F60001262DA71006814BF00F1100100F10C0187
:100F7000002020220B681A430A6010BD00F12401F2
:100F800001204FF40012F5E72DE9F04F81B004463F
:100F900000684669D0F804908768D0F80CB0D0F8A3
:100FA00010A0D0F81880F10703D1002530071CD419
:100FB00023E0F90710D00121BA07816009D478072E
:100FC00000F1AA80380700F1B080204600F0CAFA8C
:100FD00002E0204600F0C8FA0025F80500F1848000
:100FE000F80300F1AA80300707D51BF0100004D0E9
:100FF000206845F400751021C160700708D51BF00A
:10100000080005D020680821C160204600F0E4F9FE
:10101000B00706D52068C068800702D0204600F0DF
:10102000DDF9700607D51AF0100004D0206845F4E9
:10103000806510210161B00608D51AF0080005D0BE
:10104000206808210161204600F0FAF9F00606D573
:1010500020680069800702D0204600F0F3F9B00351
:1010600008D519F0100005D02068102141602046F5
:1010700000F048FAF00308D519F0080005D0206800
:1010800008214160204600F079FA300440F18F8059
:101090005FEA497040F1888006F4807008EA102009
:1010A00028435FEA8871014648BF41F00201B2055A
:1010B00058BF01465FEA48700D4648BF45F0040539
:1010C000700558BF0D4630056ED518F070006BD016
:1010D00010380009052862D8DFE800F0035356599C
:1010E0005C5F45F008055AE020684FF48071BA054E
:1010F00081600AD4780512D4380519D4204600F04E
:1011000035FAF8037FF56FAF17E0204600F030FAAC
:10111000F8037FF568AF10E04FF400655DE705F573
:101120000055F8037FF55FAF07E04FF4805554E7B3
:1011300005F58045F8037FF556AF20684FF4803100
:10114000BA0381600AD478030FD4380313D420463D
:1011500000F010FA30073FF548AF4EE7204600F0A8
:101160000BFA30073FF541AF47E705F5004530077B
:101170003FF53BAF41E705F5803530073FF535AF2B
:101180003BE745F010050AE045F0200507E045F093
:10119000400504E045F0800501E045F480752068D5
:1011A000816921F0700181612068042141602DB1C5
:1011B000606A284360622046FFF756FE01B0BDE832
:1011C000F08F0000B0B5C8B1044690F8200010B907
:1011D000204600F071F82068016821F002010160EA
:1011E00000F0A2FC054600BF20684168890707D5CA
:1011F00000F09AFC401B0B28F6D312E00120B0BD92
:10120000016841F00101016000F08EFC054600BF5D
:1012100020684168C9070DD100F086FC401B0B28EF
:10122000F6D3606A052140F400306062012084F842
:101230002010B0BD217E0268012922F0800208BF83
:1012400080320260617E0268012922F0400208BFFC
:1012500040320260A17E0268012922F0200208BF0C
:1012600020320260E17E0268012922F0100218BFDC
:1012700010320260217F0268012922F0080208BFB3
:1012800008320260617F0268012922F0040208BF6F
:1012900004320260D4E901C2D4E9033561691A431A
:1012A0002A431143ACF101021143C1610020012125
:1012B000606284F82010B0BD10B586B00021CDE981
:1012C0000411CDE90211006846F60002C4F20002E2
:1012D0009042019134D046F20041C4F200018842AC
:1012E00078D140F25001C2F200010A6843F6400092
:1012F000C4F20200531C0B6052B900210091016836
:1013000041F000710160016801F0007100910099E5
:101310000021009150F8101C142441F0080140F8FD
:10132000101C50F8100C00F00800009000980320EA
:10133000019040F20040C4F2020000F5006036E087
:1013400043F64000C4F202000091016841F0806160
:101350000160016801F080610091009940F2500144
:10136000C2F200010A68531C0B6052B900210091BF
:10137000016841F000710160016801F000710091A5
:1013800000990021009150F8101C412441F0020105
:1013900040F8101C50F8100C00F00200009000986B
:1013A0004FF44050019040F20040C4F2020002218C
:1013B000029100210391032104910921059101A9C2
:1013C00000F0DEFA20460521002200F04BFC20460A
:1013D00000F044FC06B010BD7047000080B58AB034
:1013E00003AA01AB0021FFF741FD0398A0F2012100
:1013F000072923D8411EBDF80430CAB2920040F23A
:10140000E00C1BBA52FA81F1C2F2000C1B0C3CF842
:1014100011202CF81130BDF806300CEB41010A8187
:101420001ABABDF80830120C4A801ABA9DF80A3070
:10143000120CC0B28A808B7103F018FD0AB080BD17
:101440007047000080B58AB003AA6B460121FFF700
:101450000DFD0398A0F20521042925D2411EBDF8F7
:101460000030CAB2920040F2301C1BBA52FA81F12D
:10147000C2F2000C1B0C3CF811202CF81130BDF806
:1014800002300CEB41010A811ABABDF80430120C8B
:101490004A801ABA9DF80630120CC0B28A808B714D
:1014A00003F0E4FC0AB080BDB0F5806F16D0B0F553
:1014B000A06F25D1DDE9000141F2F862C2F200021D
:1014C000C2E90001092003F0D1FC40F2F030C2F281
:1014D00000000168013101600AB080BDDDE9000152
:1014E00041F2F062C2F20002C2E90001092003F0F9
:1014F000BDFC40F2F030C2F2000001680131016031
:101500000AB080BD70470000B0B5044690F82000D6
:1015100001281DD1022084F820002068016821F0F4
:101520000101016000F000FB054600BF2068406833
:10153000C00713D000F0F8FA401B0B28F6D3606AFE
:1015400040F400306062052084F820000120B0BD26
:10155000606A40F4002060620120B0BD002060623B
:10156000B0BD0000704700007047000070470000E9
:10157000704700007047000070470000704700008F
:1015800090F83510022909D1052180F8351000683E
:10159000016821F001010160002070478021416550
:1015A00001207047F0B581B004460020009040F261
:1015B0000800C2F200000268D4E9166048F2B513D0
:1015C00037680821C1F64E3381403942A2FB03251A
:1015D0000CD0226813685B0708D5136823F0040356
:1015E0001360B160616D41F00101616501218140CD
:1015F000394208D022685269120604D5B160616D83
:1016000041F00201616504218140394208D022681D
:101610001268920704D5B160616D41F00401616503
:1016200010218140394215D020680268120711D577
:10163000B16002680168520306D4C90506D4016886
:1016400021F00801016001E0080342D4216C09B1D6
:1016500020468847E16D202000FA01F23A4244D04A
:1016600020680368DB0640D5B26094F83530026824
:10167000052B1ED122F016020260426922F0800280
:101680004261226C0AB9A26C1AB1026822F0080207
:1016900002603F208840B060002084F834000120C0
:1016A00084F83500216D002940D02046884701B0DC
:1016B000F0BD0168520310D4C90512D4016821F0AD
:1016C00010010160002084F83400012084F8350006
:1016D00007E0A16C0029BBD1BCE7080301D4616C11
:1016E00000E0E16B09B120468847606DF0B1606DA4
:1016F000C00717D0052084F835002068A90A0268C1
:1017000022F00102026000BF009A01328A42009278
:1017100002D80268D207F7D1002084F834000120F3
:1017200084F83500E16C09B12046884701B0F0BD6E
:101730002DE9F041044600F0F7F9C4B10546002058
:1017400084F83400022084F835002068016821F014
:101750000101016026683068C0070BD000F0E4F991
:10176000401B0528F6D903212022032042E0012056
:10177000BDE8F081306848F23F01CFF21001251D2D
:1017800000EA010C2ECDD4E9050E41EA0C0111430B
:1017900019432943D4E90778084340EA0E01606AF7
:1017A0003943042841EA080103D1D4E90B2311434A
:1017B000194331607169042821F0070141EA0005ED
:1017C0000CD1D4E90A1045EA010538B12046FFF7EB
:1017D00023F918B10121402201200BE02046756158
:1017E000FFF7FCF8E16D3F2202FA01F1816000226F
:1017F00001210020626584F83510BDE8F081000009
:101800002DE9F04381B040F6A058C2F2000898F8E4
:101810001820012A01D1022647E00546012088F858
:1018200018004CF250300C46FFF712FA0646C8BBBF
:101830004FF0FF3020602868012810D1287CFFF786
:101840006BF94CF25030FFF703FA43F61041C4F243
:1018500002010A68064622F00400086020E0D5E98B
:101860000270384487421BD243F61049C4F2020981
:10187000297C3846FFF700F94CF25030FFF7E8F9C1
:10188000D9F80010064621F0FA00C9F8000036B970
:10189000D5E90201013708448742E9D300E0276017
:1018A000FFF70EF9002088F81800304601B0BDE8B7
:1018B000F083000043F61041C4F20201086840F0D2
:1018C000004200200A6070472DE9F04140F6A05820
:1018D000C2F20008144698F81820012A04BF02201A
:1018E000BDE8F0810746012088F818004CF250301E
:1018F0001E460D46FFF7ACF920BB022F07D0012F83
:101900000AD077B9E1B22846FFF71AF90EE0284667
:101910002146FFF753F909E0A1B22846FFF73CF949
:1019200004E0284622463346FFF71AF94CF25030BD
:10193000FFF78EF943F61041C4F202010A6822F063
:1019400001020A60002188F81810BDE8F08100004B
:1019500043F60440C4F20200C168B1F1FF3FC4BFC6
:101960000020704740F22311C4F26751016048F62D
:10197000AB11CCF6EF510160C068C00F704700009A
:101980002DE9F04F83B000F13E4202F1FF7243F6C1
:10199000004E4FEAB22241F60047C4F2010E019216
:1019A000C4F2020708224FF0010B00254FF0000897
:1019B0004FF00009B84208BF072200920AE000BFBA
:1019C00009F1010908F10408B9F1100F05F1020548
:1019D00000F0A1800F680BFA09F417EA040CEFD0AD
:1019E000D1F804A0BAF1120F15D80BFA0AF717F0C4
:1019F000061F10D087680322CE68AA4027EA020299
:101A0000AE40324382604268A243CAF3001404FA33
:101A100009F422434260C26803238E6803FA05F486
:101A2000A2436FEA040B06FA05F422434AF01004BD
:101A3000122CC2600FD16FF0030202EA5902024475
:101A400008F01C060F23146A03FA06F70B69BC435F
:101A5000B3402343136202684B6802EA0B0203F0AF
:101A60000304AC402243DB004FF0010B0260A7D51A
:101A7000002243F644030292C4F202031A684FF6AE
:101A8000084A42F480421A601A68CFF6FF7A02F4DC
:101A900080420292029A29F00302724452F80A30FC
:101AA00008F00C040F26A640019FB343009E072FA9
:101AB00038BF3E4606FA04F4234342F80A30DEF803
:101AC00000204B6842EA0C04DE0358BF22EA0C04F3
:101AD000CEF80040DEF804209E0342EA0C0458BF12
:101AE00022EA0C04CEF80440DEF80820DE0242EAC6
:101AF0000C0458BF22EA0C04CEF8084043F60C440C
:101B0000C4F2010422689B0242EA0C0358BF22EA95
:101B10000C03236054E703B0BDE8F08F002A08BF30
:101B2000090481617047000045F6B000C2F2000070
:101B30000068704740F2440045F6B001C2F2000070
:101B4000C2F2000100780A68104408607047000083
:101B500080B543F60040C4F20200016841F4007110
:101B60000160016841F480610160016841F48071A5
:101B70000160032000F086F8002000F005F800F076
:101B800049F8002080BD000010B586B0014619203C
:101B90000022002400F066F8192000F05FF843F6F8
:101BA00044000194C4F20200016841F001010160A7
:101BB0000068694600F001000190019801A800F05A
:101BC00015F900F04BF94DF683614000C4F21B316A
:101BD000A0FB01014FF0FF3000EB914140F6D43003
:101BE0000022C2F20000C4F2010240F2E733C0E971
:101BF0000021C0E90243046100F072FB10B1012032
:101C000006B010BD40F6D430C2F2000000F0A8FBD0
:101C100006B010BD80B582B0002043F640010190AF
:101C2000C4F202014A6842F480424A604A6802F4FF
:101C300080420192019A00900868002240F0805092
:101C4000086008680F2100F08050009000986FF045
:101C5000010000F007F802B080BD000080B502F07E
:101C60009DF880BD70B514460D46064602F0A6F8F4
:101C70002946224601F0F4FA0146304602F0A6F861
:101C800070BD000080B502F0B3F880BD2DE9F041D1
:101C9000002800F08B8043F60808C4F202080446CE
:101CA000D8F8F8030D4600F00F00884207D288F8F4
:101CB000F853D8F8F80300F00F00A84276D1206856
:101CC000810717D5410705D5D8F8001041F4E05138
:101CD000C8F80010010705D5D8F8001041F460419C
:101CE000C8F80010D8F80010A26821F0F0011143E4
:101CF000C8F80010C0073FD1D8F8F80300F00F0073
:101D0000A84207D988F8F853D8F8F80300F00F0074
:101D1000A8424BD12068410707D5D8F80010E268E7
:101D200021F4E0511143C8F80010000708D5D8F895
:101D30000000216920F4604040EAC100C8F80000BA
:101D400000F09EF8D8F8001049F68822C1F303117C
:101D5000C0F60002515C40F2080220FA01F140F2A4
:101D60004800C2F200000068C2F200021160FFF7F2
:101D70000BFF0020BDE8F0816068811E022907D2B8
:101D800058F8081C89015CBF0120BDE8F08110E013
:101D9000012807D158F8081C89035CBF0120BDE861
:101DA000F08106E058F8081C890702D40120BDE83C
:101DB000F081D8F8001021F003010843C8F80000B2
:101DC000FFF7B2FE064641F2883700BFD8F80000A0
:101DD000616800F00C00B0EB810F8DD0FFF7A4FE1E
:101DE000801BB842F2D90320BDE8F0810F220260C7
:101DF00043F60802C4F20202136803F003034360CF
:101E0000136803F0F0038360136803F4E053C360C6
:101E1000D2F800C04FF4E05303EADC030361D2F8C8
:101E2000F80300F00F0008607047000040F208005F
:101E3000C2F200000068704780B5FFF7F7FF43F675
:101E40000801C4F20201096849F69822C1F382210F
:101E5000C0F60002515CC84080BD000080B5FFF7AD
:101E6000E5FF43F60801C4F20201096849F6982229
:101E7000C1F34231C0F60002515CC84080BD000091
:101E800010B543F60404C4F20204606800F00C01CB
:101E900042F200400829C0F2F40007D0042918BF1C
:101EA00010BD41F20020C0F27A0010BD216801F09F
:101EB0003F02216823684902C3F3881105D4A1FBBE
:101EC00000010023FEF77CF906E041F20020C0F299
:101ED0007A004843B0FBF2F021680222C1F30141CD
:101EE00002EB4101B0FBF1F010BD00002DE9F04123
:101EF00082B0002800F098800446007843F600067F
:101F0000C007C4F2020643D0B06800F00C000428F9
:101F100005D1306880033BD56068C8BB84E0B068F9
:101F200000F00C00082802D170684002F1D4656806
:101F3000B5F5A02F0AD0B5F5803F0BD0306820F45E
:101F400080303060306820F4802006E0306840F453
:101F500080203060306840F480303060FFF7E4FD6E
:101F6000002D054611D000BF3068800310D4FFF764
:101F7000DBFD401B6428F7D918E100BFFFF7D4FD53
:101F8000401B64284FF003004BD830688003F5D421
:101F90002078800719D5B06810F00C0F08D0B06811
:101FA00000F00C00082840F08080706840027CD46B
:101FB0003068800702D5E068012835D13068216992
:101FC00020F0F80040EAC1003060207800072FD4EC
:101FD0002078400743D4A56915B3B06800F00C0021
:101FE000082840F09580012D1ED07068E16900F44A
:101FF00080028A4218D1216A00F03F028A4213D13E
:1020000047F6C071626A014091420DD1A16A00F4A5
:1020100040328A4208D1E16A00F07060884203D100
:10202000002002B0BDE8F081012002B0BDE8F081DF
:102030006069002840F20000C4F2472057D0012117
:10204000C0F8801EFFF770FD054600BF706F800767
:10205000BED4FFF769FD401B0228F7D9A6E0306C1B
:1020600010F080580AD100200190306C40F0805070
:102070003064306C00F080500190019847F2000706
:10208000C4F200073868C00524D4386840F4807072
:102090003860FFF749FD05463868C0051AD4FFF7D8
:1020A00043FD401B0228F7D980E0E068002851D0AA
:1020B0000020C4F2472001210160FFF735FD0546ED
:1020C000306880073FF57AAFFFF72EFD401B0228EE
:1020D000F6D96BE0A568052D50D0012D52D0306F98
:1020E00020F001003067306F20F004004DE0002147
:1020F000C0F8801EFFF718FD054600BF706F80070F
:102100007FF566AFFFF710FD401B0228F6D94DE0C2
:102110000027C4F2472700203866FFF705FD022D8F
:1021200005460BD13068800158D5FFF7FDFC401BF8
:1021300002284FF00300F5D973E700BF3068800133
:102140007FF56EAFFFF7F0FC401B02284FF0030055
:10215000F4D966E70020C4F2472000210160FFF7B0
:10216000E3FC0546306880077FF52FAFFFF7DCFC06
:10217000401B02284FF00300F4D952E7306F40F0C3
:1021800004003067306F40F001003067FFF7CCFC8F
:10219000002D054641F2883714D000BF306F80070C
:1021A00013D4FFF7C1FC401BB842F7D9032002B09B
:1021B000BDE8F081FFF7B8FC401BB8424FF00300C8
:1021C0003FF62FAF306F8007F4D4B8F1000F7FF4E3
:1021D00002AF306C20F080503064FCE604F11C0546
:1021E0002FCD084340EA8210D9034FF6FF72914386
:1021F000A1F5803140EA056008437060012038662F
:10220000FFF792FC044600BF306880013FF508AF3D
:10221000FFF78AFC001B02284FF00300F4D900E707
:10222000704700007047000010B590F83C20012A6C
:102230004FF0020252D0012380F83C3080F83D205C
:102240000268D2F804E0D2F808C00C682EF07003DF
:10225000234341F2FF74C4F20004A24253600DDC38
:1022600040F2FF73C4F200039A4215DCB2F1804FD2
:1022700029D040F20043C4F2000322E040F2FF33D1
:10228000C4F201039A4212DC41F60003C4F20003D7
:102290009A4218D0002312E040F60003C4F2000373
:1022A0009A4210D040F60043C4F2000309E044F221
:1022B0000003C4F201039A4205D040F20043C4F285
:1022C00001039A4204D149682CF0800319439160BC
:1022D0000121002280F83D1080F83C20104610BDFE
:1022E000002804BF0120704710B5044690F83D0057
:1022F00028B9002084F83C00204600F00DF80220A8
:1023000084F83D002068211D01F04AFA012084F87C
:102310003D00002010BD000080B582B0006840F68E
:102320000001C4F20001884201D002B080BD00204B
:10233000019043F64000C4F202000168002241F01F
:10234000040101600068052100F00400019001987B
:102350001E20FFF787FC1E20FFF780FC02B080BD27
:102360000068C16841F00101C160816801F00701A6
:10237000062903D0016841F0010101600020704787
:1023800010B5044690F83C0001284FF0020008BF49
:1023900010BD012284F83C2084F83D0020684FF6EF
:1023A000777382689A4382600A683F2A14DD5F2A45
:1023B00018DD602A28D0B2F5005F2DD0702A40D1F8
:1023C000D1E9012CCB68614601F07CFA2068816874
:1023D00041F07701816034E01F2A0FDC92B1102AAE
:1023E00010D02EE0402A23D0502A2AD14B68CA6848
:1023F000194601F07BFA2068502120E0202A01D004
:10240000302A1ED111461AE04B68CA68194601F0FD
:102410007FFA2068602112E0D1E9012CCB68614687
:1024200001F050FA2068816841F48041816008E041
:102430004B68CA68194601F059FA2068402101F03A
:102440004DFA012084F83D00002084F83C0010BDC6
:102450007047000010B5044600680169890744BF51
:10246000C1685FEA817138D420680169490744BFB7
:10247000C1685FEA41713CD420680169090744BF23
:10248000C1685FEA017141D420680169C90644BF8F
:10249000C1685FEAC16145D420680169C9071CBFF2
:1024A000C1685FEAC1714AD120680169090644BF69
:1024B000C1685FEA016149D420680169490644BFE7
:1024C000C1685FEA416148D420680169890644BF58
:1024D000C1685FEA816147D410BD6FF002010161FC
:1024E000012121778069800745D02046FFF7B0FFA2
:1024F00047E06FF00401016102212177806910F447
:10250000407F41D02046FFF7A3FF43E06FF0080172
:10251000016104212177C06980073ED02046FFF782
:1025200097FF40E06FF01001016108212177C06939
:1025300010F4407F3AD02046FFF78AFF3CE06FF06E
:1025400001010161204600F03FF8ADE76FF0800126
:1025500001612046FFF764FEAEE76FF040010161C4
:10256000204600F03BF8AFE76FF020010161204604
:10257000FFF758FE10BD204600F022F8204600F07C
:1025800021F8002020776FE7204600F019F8204658
:1025900000F018F8002020776EE7204600F010F8D1
:1025A000204600F00FF8002020776DE7204600F06D
:1025B00007F8204600F006F8002020776CE70000BE
:1025C000704700007047000080B500680021C4F229
:1025D0000101884208BFFFF7ADFA80BD70470000D7
:1025E0007047000010B5026804461068D16853694E
:1025F00000F02F02202A01F0200204D11AB1204657
:1026000001F022FA10BD5FEA007C1EBF03F0010E4C
:1026100001F4907313EB0E030DD10840010606D4AC
:10262000400658BF10BD204601F002FA10BD2046FA
:1026300001F000FB10BDC30718BF11F4807302D175
:10264000430706D40CE0E36B43F00103E363430765
:1026500006D5BEF1000F03D0E36B43F00203E36342
:10266000830706D5BEF1000F03D0E36B43F00403EC
:10267000E363BCF1000F06D552EA0E0203D0E26B11
:1026800042F00802E263E26B002ACFD008408006E5
:1026900002D5204601F0D8F920684069E16B00F0CE
:1026A000400001F0080140181DD0204601F0B2F9A9
:1026B00020684169490612D5416921F04001416114
:1026C000606B60B143F60521C0F600010165FEF7BD
:1026D00057FF0028AAD0606B016D884710BD2046C7
:1026E000FFF77EFF10BD2046FFF77AFF0020E06372
:1026F00010BD0000002804BF0120704710B504463B
:1027000090F8390028B9002084F83800204600F0FD
:1027100021F8242084F839002068C16821F4005190
:10272000C160204601F0D0F92068016921F4904190
:102730000161416921F02A014161C16841F4005100
:10274000C16000202021E06384F8391084F83A1039
:1027500010BD00002DE9F04F87B00446006844F634
:10276000FF71C4F2000188424FF000010691CDE9EB
:102770000411CDE902117DDD45F20001C4F2000132
:10278000884200F0D38041F20001C4F20101884286
:1027900000F03B8141F20041C4F20101884240F067
:1027A000F381002643F630000196C4F2020041692D
:1027B00046F2100841F0200141614169C4F202086B
:1027C00001F02001019101990196016841F0040195
:1027D0000160006802A900F0040001900198C02087
:1027E00002900220CDE90306032005900820069000
:1027F0000020C4F2020000F50060FFF7C1F840F6C7
:10280000143508F58360C2F200054FF020674FF4DD
:102810008069C5E900072846C5E90266C5E904964E
:10282000C5E90666C5E90866FEF782FF002818BFFD
:10283000FEF71CF96563AC6340F6743508F59260E9
:10284000C2F200054021C5E9000705F1080080E853
:1028500042022846C5E90566C5E907666E62FEF7CD
:1028600067FF002818BFFEF701F92563AC6307B0C6
:10287000BDE8F08F44F20041C4F20001884200F04C
:10288000348144F60041C4F20001884240F07C816A
:10289000002643F630000196C4F20200016941F4BB
:1028A00000210161016901F4002101910199019662
:1028B000016841F0010101600068022100F001009F
:1028C000019001980320039101210290CDE90410A9
:1028D000082006900020C4F2020002A9FFF750F879
:1028E00046F21000C4F2020040F634153030C2F255
:1028F00000054FF000614FF4806285E843002846F0
:10290000C5E90362C5E90566C5E907666E62FEF7BB
:102910000FFF002818BFFEF7A9F834200521002278
:102920006563AC63FFF79EF93420D9E0002643F6D7
:1029300030000196C4F202000169002741F48011C1
:1029400001610169C4F2020701F48011019101994A
:102950000196016802AD41F00401016001684FF089
:10296000020801F0040101910199019601684FF0FC
:10297000010941F00801016000684FF0030A00F00E
:102980000800019001984FF4805002904FF0080B1E
:1029900007F500602946CDF80C80CDF81090CDF8F1
:1029A00014A0CDF818B0FEF7EBFF042002A981E8CF
:1029B000010F07F540602946FEF7E2FF40F6941547
:1029C00046F21000C2F20005C4F202004FF00061AE
:1029D0004FF4806285E843004FF40030C5E903629C
:1029E000C5E90566EE61C5E908062846FEF7A0FEC2
:1029F000002818BFFEF73AF835200521002265634C
:102A0000AC63FFF72FF935206AE0002643F630006B
:102A10000196C4F20200416946F2100841F010012B
:102A200041614169C4F2020801F01001019101996C
:102A30000196016841F001010160006802A900F0FF
:102A40000100019001984FF4C06002900220CDE98E
:102A5000030603200590072006900020C4F2020020
:102A6000FEF78EFF40F6F41508F58660C2F2000509
:102A70004FF000674FF48069C5E900072846C5E9B3
:102A80000266C5E90496C5E90666C5E90866FEF76B
:102A90004FFE002818BFFDF7E9FF6563AC6340F601
:102AA000542508F59560C2F200054021C5E90007EC
:102AB00005F1080080E842022846C5E90566C5E937
:102AC00007666E62FEF734FE002818BFFDF7CEFFE2
:102AD0002520052100222563AC63FFF7C3F82520DC
:102AE000FFF7BCF807B0BDE8F08F002643F63000D2
:102AF0000196C4F20200016941F4003101610169EB
:102B000001F40031019101990196016841F0010140
:102B10000160006802A900F00100019001980C20FA
:102B200002900220CDE903060320059007200690BD
:102B30000020C4F20200FEF723FF46F21000C4F2A8
:102B4000020040F6B4257830C2F200054FF0006173
:102B50004FF4806285E843002846C5E90362C5E971
:102B60000566C5E907666E62FEF7E2FD002818BF3C
:102B7000FDF77CFF2620052100226563AC63FFF78B
:102B800071F82620FFF76AF807B0BDE8F08F000063
:102B9000034690F83A0020280AD100294FF001009E
:102BA00018BF002A00D1704793F83800012801D1DE
:102BB000022070479962002022219A85DA85D86325
:102BC00083F83A10196883F83800CA6842F48072B2
:102BD000CA604A6942F001024A61CA6842F02002B2
:102BE000CA607047704700002DE9F041044690F834
:102BF000390020280DD10E4600294FF0010052D097
:102C00001746002A08BFBDE8F08194F83800012873
:102C100002D10220BDE8F081012084F838004FF095
:102C2000000821201D46C4F83C8084F83900FEF7D6
:102C30007BFFA784E78484F83880E18C804661B903
:102C40002046402142462B4601F022F838B30320AB
:102C5000BDE8F081E08C0028F2D0E08C80210138C2
:102C6000E084A768204642462B4601F011F8B7F5EC
:102C7000805F0DD10028EAD13088216922686FF386
:102C80005F200029506014BF01360236E2E700BF22
:102C90000028DCD116F8010B21684860DAE7202013
:102CA00084F839000020BDE8F08100007047000082
:102CB000FEE7000080B540F6E40046F20041C2F2B3
:102CC0000000C4F200010322002380E80E0000F19E
:102CD0000C014FF4102C4FF4001E81E80850836162
:102CE0008383FEF76FFA002818BFFDF7BFFE80BD93
:102CF00080B540F60C1046F60001C2F20000C4F2A6
:102D000000010322002380E80E0000F10C014FF4C3
:102D1000102C4FF4001E81E8085083618383FEF776
:102D200051FA002818BFFDF7A1FE80BD80B582B022
:102D3000002043F630010190C4F202010A6842F417
:102D400000120A600A6802F400120192019A0090CF
:102D50000868002240F4800008600868052100F43B
:102D60008000009000980B20FEF77CFF0B20FEF700
:102D700075FF0D2005210022FEF774FF0D20FEF7E0
:102D80006DFF102005210022FEF76CFF1020FEF7DA
:102D900065FF392005210022FEF764FF3920FEF788
:102DA0005DFF3A2005210022FEF75CFF3A20FEF786
:102DB00055FF452005210022FEF754FF4520FEF770
:102DC0004DFF462005210022FEF74CFF4620FEF76E
:102DD00045FF02B080BD000010B5CEB049F66C10C2
:102DE000C0F6000090E80E50D0E9054047914892A7
:102DF0004993CDF828C1CDF82CE1CDE94C4047A846
:102E0000002103F02FFB40F2F431C2F20001086010
:102E100049F6A410C0F6000090E81E508069409169
:102E2000469040A80021419242934394CDF810C1AE
:102E3000CDF814E103F016FB40F20461C2F2000188
:102E4000086049F65010C0F6000090E81E508069F6
:102E500039913F9039A800213A923B933C94CDF8A8
:102E6000F4C0CDF8F8E003F0FDFA40F28411C2F2AC
:102E70000001086049F68810C0F6000090E81E5076
:102E800080693291389032A800213392349335947E
:102E9000CDF8D8C0CDF8DCE003F0E4FA40F2F83128
:102EA000C2F20001086049F61810C0F6000090E870
:102EB0001E5080692B9131902BA800212C922D93CC
:102EC0002E94CDF8BCC0CDF8C0E003F0CBFA40F2B0
:102ED000C401C2F20001086049F6F810C0F6000013
:102EE00090E81E50806924912A9024A80021259200
:102EF00026932794CDF8A0C0CDF8A4E003F0B2FA51
:102F000040F69C51C2F20001086049F61420C0F658
:102F1000000090E81E5080691D9123901DA800219B
:102F20001E921F932094CDF884C0CDF888E003F062
:102F300099FA40F68861C2F20001086049F6302033
:102F4000C0F6000090E81E50806916911C9016A8EB
:102F50000021179218931994CDF868C0CDF86CE051
:102F600003F080FA41F25851C2F20001086049F6BC
:102F7000DC10C0F6000090E81E5080690F9115909B
:102F80000FA80021109211931294CDF84CC0CDF8E7
:102F900050E003F067FA40F69851C2F20001086071
:102FA00049F6C010C0F6000090E81E5080690891F4
:102FB0000E9008A8002109920A930B94CDF830C016
:102FC000CDF834E003F04EFA40F69451C2F200011D
:102FD000086049F63410C0F6000090E81E50806981
:102FE0000191079001A80021029203930494CDF867
:102FF00014C0CDF818E003F035FA40F28011C2F2A7
:10300000000108604EB010BD70B586B0002543F6D3
:1030100030000595CDE90355CDE901550095C4F281
:103020000200016840F6004441F08001016001683F
:10303000C4F2020401F0800100910099009501683A
:10304000002241F00101016001684FF4706601F057
:103050000101009100990095016841F002010160B1
:10306000016801F00201009100990095016841F0AA
:1030700008010160016801F00801009100990095C4
:10308000016841F00401016000684FF4706100F0D4
:103090000400009000982046FEF740FD01200196B4
:1030A000CDE9020501A920460495FEF769FC06B0AA
:1030B00070BD000080B586B040F6144040F60002B6
:1030C0000021C2F20000C4F20002A72342F20F7CEA
:1030D000CDE90411CDE90211CDE90011C0E90023C9
:1030E000C0E9021C016180218161FFF7F9F8002825
:1030F00018BFFDF7BBFC4FF48050029040F614401F
:10310000C2F2000002A9FFF73BF9002818BFFDF743
:10311000ADFC0020CDE9000040F61440C2F20000F2
:103120006946FFF781F8002818BFFDF79FFC06B03D
:1031300080BD000080B540F6D44044F60041C2F2A4
:103140000000C4F2000100234FF00C0C4FF4E132F8
:1031500080E80E00C0E90333C0E905C3C361FFF78F
:10316000C9FA002818BFFDF781FC80BD10B540F6F4
:10317000145045F2000C48F2A062C2F20000C4F202
:10318000000CC0F201024FF4805300214FF4806E16
:103190000C24C0E900C2C0E90231C0E904E4C0E97E
:1031A0000611FFF7A7FA002818BFFDF75FFC10BD56
:1031B00080B540F6544041F20001C2F20000C4F272
:1031C000010100234FF00C0C4FF4E13280E80E00B7
:1031D000C0E90333C0E905C3C361FFF78BFA0028D8
:1031E00018BFFDF743FC80BD80B540F6944044F223
:1031F0000041C2F20000C4F2000100234FF00C0CA9
:103200004FF4E13280E80E00C0E90333C0E905C3A2
:10321000C361FFF76FFA002818BFFDF727FC80BDD8
:1032200080B540F6545041F20041C2F20000C4F2B1
:10323000010100234FF00C0C4FF4E13280E80E0046
:10324000C0E90333C0E905C3C361FFF753FA00289F
:1032500018BFFDF70BFC80BDFEE70000FEE7000095
:1032600000F0070080F00703042B28BF04234FF071
:10327000FF3C03380CFA03F338BF00209943814028
:103280000CFA00F022EA00000843704780B1D0E950
:103290000F1230EEC02AC0E910120178C0ED060A04
:1032A00080ED070A80ED0F2A29B190ED080A7047DA
:1032B0009FED2A0A704790ED023A90ED010A90EDD9
:1032C0000A5A22EE033A90ED051A22EE000A35EE74
:1032D000033A90ED105A90ED034A80ED090A80ED13
:1032E0000A3AD0E90C1232EE452AB4EE413A80EDAA
:1032F0000C2A22EE042AF1EE10FA4163826380ED7B
:103300000B2A02DD80ED0A1A08E0B1EE411AB4EE94
:10331000413AF1EE10FAB8BF80ED0A1A90ED0A3A80
:1033200090ED041A30EE030A32EE000AB4EE410AC0
:10333000F1EE10FA80ED080A04DD80ED081A90ED38
:10334000080A7047B1EE411AB4EE410AF1EE10FAE4
:10335000B8BF80ED081A90ED080A70470000000021
:10336000002808BF704780B518303021FCF772FF85
:10337000BDE8804070470000002818BF002A00D137
:10338000704780B5136801704360536828218360DB
:10339000926880ED040AC260C0ED050A2030FCF797
:1033A00059FFBDE8804070470000000000000000A9
:1033B000EFF30980BFF36F8F154B1A681EF0100FE3
:1033C00008BF20ED108A20E9F04F10602DE90900B8
:1033D0004FF0500080F31188BFF34F8FBFF36F8F12
:1033E00004F0A2FF4FF0000080F31188BDE809004F
:1033F00019680868B0E8F04F1EF0100F08BFB0EC75
:10340000108A80F30988BFF36F8F704700BF00BF39
:10341000900F002080B540F61453C2F20003D3F899
:1034200000C0DCF8143043F04003CCF81430DCF872
:103430000C3043F01003CCF80C3040F69413C2F279
:103440000003D3F800E0DEF800C02CF00103CEF852
:103450000030DEF80030DB070AD000BFDEF80030B5
:1034600023F00103CEF80030DEF80030DB07F5D1A1
:1034700045F20403C4F20003CEF80830CEF80C0085
:10348000CEF81010CEF80420DEF8000040F48020C2
:10349000CEF80000DEF8000040F00100CEF8000099
:1034A00080BD000070B540F2C800C2F2000090F983
:1034B000041040F256040029C2F2000415D440F270
:1034C0005C062278C2F20006318840F25805C2F24A
:1034D0000005B2B9B1F5FA6F13D905F09DFB28606C
:1034E000012020700020308017E040F25400C2F22A
:1034F00000000021018040F25C00C2F20000018067
:1035000096E0022A09D1B1F5FA6F06D902790021B5
:103510002170318042F08001017140F2D800C2F286
:10352000000000684FF6A852B0F90010CFF6FF7205
:1035300011F5167F17DAB0F90230934213DAB0F9B9
:103540000430B3F5167F0EDDB0F9063093420ADA87
:10355000837A022B07D1C37A022B04D1237813B9C3
:10356000308801305BE0B1F5167F38DDB0F902300C
:10357000B3F5167F16DDB0F90430934212DAB0F9D4
:103580000630B3F5167F0DDD837A022B0AD1C37A9C
:10359000022B07D123782BB13088013030800220F4
:1035A00020703DE0B1F5167F19DDB0F9023093428D
:1035B00015DAB0F90430934211DAB0F906309342CB
:1035C0000DDA837A022B0AD1C37A022B07D1237832
:1035D0002BB13088013030800320207020E09142F0
:1035E0001CDAB0F90210B1F5167F17DDB0F904103E
:1035F000B1F5167F12DDB0F90610B1F5167F0DDDBD
:10360000817A02290AD1C07A022807D1207828B10C
:103610003088013030800420207001E000203080AC
:1036200005F0FAFA2968401A44F62061884202D966
:103630000020207070BD207830B140F25401C2F2F9
:1036400000010A8801320A80002808BF70BD40F2DC
:103650005400C2F200000188B1F5C87F84BF002188
:10366000018070BD000000000000000000000000AC
:10367000074B19680868B0E8F04F80F30988BFF37A
:103680006F8F4FF0000080F31188704700BF00BFBC
:10369000900F002080B54FF0500080F31188BFF3E9
:1036A0006F8FBFF34F8F05F0C7FA30B14EF604505D
:1036B000CEF200004FF080510160002080F31188AD
:1036C00080BD000070B592B006AC20463021FCF7FA
:1036D000C1FD002543F640000595CDE90355CDE930
:1036E00001550095C4F202000168022641F08051A4
:1036F0000160006800F080500090009847F20000E0
:103700000095C4F20000016841F480410160006846
:1037100000F48040009000980120099010200A9049
:1037200008200696CDE90C650E90A820CDE90F067D
:10373000042011902046FEF7D9FB88B90F20CDE96F
:1037400001064FF4A05004904FF48050059001A85A
:1037500005210395FEF79AFA002804BF12B070BD48
:10376000FDF784F94EF68850CEF20000016841F46E
:10377000700101604FF0006140F8801C704700004C
:1037800080B540F6D430C2F20000FEF763FE80BD83
:1037900080B540F61440C2F20000FEF75BFE80BD2B
:1037A00010B540F6FF3E0368C4F2000E40F2004C34
:1037B0007045C4F2010C0FDCB0F1804F19D040F21B
:1037C0000042C4F20002904213D040F60002C4F25C
:1037D000000290420DD010E040F60042C4F2000218
:1037E000904206D0604504D00022C4F2010290420B
:1037F00003D14A6823F07003134341F6FF72C4F209
:10380000000290420DDC70451FDCB0F1804F41D0CA
:1038100040F20042C4F2000290423BD040F6000267
:1038200021E043F6FF72C4F20102904220DC42F232
:103830000002C4F2000290422CD00022C4F2010225
:10384000904227D0604525D028E040F60042C4F2DF
:10385000000290421ED041F60002C4F200029042E3
:1038600018D041F60042C4F20002904212D015E096
:1038700044F20002C4F2010290420BD044F600026E
:10388000C4F20102904205D044F20042C4F20102A7
:10389000904203D1CA6823F44073134323F080029B
:1038A0004B69D1F800E08C681A430260C46240F4AE
:1038B0008062C0F828E0624504BF09690163012104
:1038C000416110BDD0F808C011432CF47F4C41EA8F
:1038D000032141EA0C01816070470000826822F0F8
:1038E0007002114341F0070181607047D0F820C099
:1038F000036A23F001030362836923F0F00343EAC0
:1039000002122CF00A031943826101627047000021
:10391000036A23F0100303628369D0F820C023F404
:10392000704343EA02322CF0A00343EA01118261A2
:103930000162704780B540F6D440C2F20000FEF745
:1039400051FE80BD80B582B040F61450C2F2000036
:1039500000680168890632D445F20001C4F2000112
:103960000968C9064CD50021009101682423009103
:1039700040680090009840F69410C2F20000006881
:1039800002680168120321F001010160416843608F
:1039900089B21DD40268122942F400220260026832
:1039A00042F0010202602BD141F21050C2F200003D
:1039B00003F0EEFD002001F059FA02B080BD0021B5
:1039C00001910168019140680190019802B080BDA9
:1039D00046F21002C4F202021368122923F40023F3
:1039E0001360026842F00102026009D141F21050F6
:1039F000C2F20000243003F0CBFD002001F036FAC3
:103A000002B080BD80B5806B0021C185C184FEF706
:103A1000E7FD80BD0168CA6822F49072CA604A69F5
:103A200022F001024A61202180F83A10704700001C
:103A300080B50168CA6822F04002CA60202180F87F
:103A40003910FFF733F980BD80B590F83A1022297C
:103A500038D18168B1F5805F0AD102680369816A53
:103A600052688BB1836AD2B20A80591C816211E01C
:103A7000016802694968002A826A18BF01F07F0163
:103A8000531C8362117005E0836A6FF35F220A8022
:103A9000991C8162C18D01390A04C18518BF80BD9E
:103AA0000168CA6822F02002CA60CA6822F48072E3
:103AB000CA604A6922F001024A61202180F83A1066
:103AC000FFF790F880BD0000B0B50546006805F12D
:103AD00008030ECB0469194324F4405422430261C5
:103AE0006A69EB691143C26849F20C641943A24345
:103AF0001143C1604169AA6921F4407111434161D8
:103B000041F20041B3F5004F40F48060C4F201017E
:103B100024D1884246D1FEF7A1F96B681921A0FB98
:103B200001015A00DB0FFCF74BFB48F21F51C5F2B5
:103B3000EB11A0FB01235A096FF0630302FB0300A2
:103B4000322303EBC000A0FB01014FF4F87000EA40
:103B5000111000EB0210C1F3421167E0884244D11A
:103B6000FEF77CF96B681921A0FB01019A009B0FFD
:103B7000FCF726FB48F21F51C5F2EB11A0FB012315
:103B80005A096FF0630302FB0300322303EB0010BA
:103B9000A0FB0101F02000EA511000EB0210C1F37C
:103BA000431143E0FEF748F96B681921A0FB0101BE
:103BB0005A00DB0FFCF704FB48F21F51C5F2EB1172
:103BC000A0FB01235A096FF0630302FB03003223B9
:103BD00003EBC000A0FB01014FF4F87000EA1110E4
:103BE00000EB0210C1F3421120E0FEF725F96B68EB
:103BF0001921A0FB01019A009B0FFCF7E1FA48F2A2
:103C00001F51C5F2EB11A0FB01235A096FF06303AA
:103C100002FB0300322303EB0010A0FB0101F020A4
:103C200000EA511000EB0210C1F343112A68084367
:103C30009060B0BD90F83910212927D18168B1F585
:103C4000805F0ED1016AD0F800C00B8802696FF363
:103C50005F23002ACCF8043014BF01310231016225
:103C600005E0016A02684B1C036209785160C18C4F
:103C700001390A04C18418BF70470068C16821F087
:103C80008001C160C16841F04001C160704700001F
:103C90002DE9F0410446006800680840884202D1DE
:103CA0000020BDE8F0811D460E4690465F1C04E0F2
:103CB000206800683040B042F2D0002FF8D02DB11B
:103CC000FDF732FFA0EB0800A842F1D92068C168D7
:103CD00021F4D071C160416921F0010141612020CE
:103CE00084F8390084F83A00002084F83800032072
:103CF000BDE8F08180B540F65440C2F20000FEF706
:103D000071FC80BD80B540F69440C2F20000FEF721
:103D100069FC80BD80B582B041F20040C4F2010070
:103D20000068C00636D50020019040F65450C2F21B
:103D300000000168406B0A684FF400730192496803
:103D40000191019900680168026811F4002122F0D4
:103D500001020260426843600368C2F5007223F406
:103D60000023194481F400230360036845F2B04145
:103D7000C2F2000143F0010318BF01F500710360B6
:103D800041F24C0092B2C2F2000001F0E9F90B20BE
:103D900001F06CF802B080BDFEE70000002848BFCB
:103DA000704700F01F01012202FA01F14EF20012E9
:103DB0004009CEF2000242F8201070474EF60C5037
:103DC000CEF200000068C0F3022070474EF6145394
:103DD00000F00F02CEF2000309011A4400F1604323
:103DE000B0F1FF3FC8BF03F5644211707047000097
:103DF0004EF60C51CEF200010A684FF6FF031A404E
:103E000060F30A2242F0806040F0FD700860704765
:103E100090ED001AB4EE401AF1EE10FA02DD80EDDA
:103E2000000A7047B1EE400AB4EE401AF1EE10FA03
:103E3000B8BF80ED000A70472DE9F04F81B000282F
:103E400000F0A3808B46002900F09F801646002AD0
:103E500000F09B801D46002B00F09780DDF8289035
:103E6000B9F1000F00F09180DDF82C80B8F1000F5F
:103E700000F08B8040F2386AC2F2000ABAF86E1283
:103E8000BAF86C2241F6FF74891A0BB2002B48BFB6
:103E900021448BB201EBD33109B202EB61010AB2CA
:103EA0000B46002A48BF2344B2F5005FA8BF0B1B96
:103EB0000380BAF86C029FB2394602F09BFABAF856
:103EC0006E02B1EE400A394686ED000A02F092FA1F
:103ED000B1EE400A85ED000A9AED990A9FED2C1A81
:103EE0009AED9A2A80EE010A82EE011ABAF870025F
:103EF000BAF87222BDEEC00A10EE101A4718BDEED5
:103F0000C10A39B210EE103A1A440029384613B2E9
:103F100048BF2044B1F5005F1146A8BF381B002BF5
:103F200048BF2144B3F5005FA8BF111B411A0AB274
:103F30000B4612F5805FB8BF2344B2F5805FC8BF5F
:103F40000B1B99B203EBD13109B2A0EB610001B2B6
:103F50000246002948BF2244B1F5005FA8BF021BFA
:103F6000ABF80020BAF8700294B2214602F042FA8F
:103F7000BAF87202B1EE400A214689ED000A02F059
:103F800039FAB1EE400A88ED000A01B0BDE8F08FC1
:103F9000DB0F493AB0B582B040F2C805C2F2000565
:103FA00028790024D5F80510C0F6060400F07F0239
:103FB000204601F05BF9287901A900F07F0044EA6E
:103FC0008000012201F052F99DF807109DF80400CD
:103FD000BDF8052055292870A5F80120E97006D004
:103FE000D5F8090018B1287940F08000287102B096
:103FF000B0BD000070B540F2C805C2F200052879D6
:1040000040F2A854D5F8051000F07F06C2F2000473
:10401000B2002046FCF705F928680025C0F6060521
:1040200044F826002846012101F00AF928462146D5
:10403000062201F023F970BD80B582B001290BD0B2
:1040400039B902884188043090EC040A104603F024
:10405000FDFA002002B080BD811C021D00F10803A2
:1040600000F10C0C00F1100ECDE900CE00F042FE84
:10407000002818BF012002B080BD000010B540F23A
:10408000C804C2F20004207940F2186100F08000F8
:104090000530207140F20C00C2F200000068C2F24C
:1040A0000001C4F80510C4F80900FFF773FFE078B9
:1040B00055280AD1D4F80920002A08BF10BD40F2C3
:1040C0001860C2F200000021904710BD01F03EFAD6
:1040D00040F2D80140F2D50540F2C80640F2DC09B2
:1040E00040F2186444F6475AC2F20001C2F20005D9
:1040F000C2F200060D274FF00008C2F20009C2F21A
:104100000004C5F2005A086008E000BF012002F078
:1041100089F9002003F072FDC9F80000FFF7C2F929
:10412000002085F8008005E02878411CC8B288424C
:104130002970EBD000FB076090F90410B1F1FF3F4C
:10414000F2DCD0F80920002AEED020460121904769
:104150000028E9D0287810FB07610A79784346F8EF
:1041600000A002F07F000871FFF744FFDCE70000C9
:1041700070B58AB040F6E40401260020C2F20004C3
:104180006D460896CDE90606CDE90000CDE90200AE
:10419000CDE9040020462946FCF7F6FD2046FDF750
:1041A000B3F920460221FCF789FD40F60C140E20DD
:1041B000C2F200040990CDE9046020462946FCF7CC
:1041C000E3FD2046FDF7A0F920461021FCF776FD1F
:1041D0000AB070BD82B040F2A81540F2386841F2D2
:1041E0005C570020C2F20005C2F20008C2F20007CC
:1041F00001AC019019E000BF002003F03BFC002857
:1042000046D000200021002200230026FCF77AFB84
:1042100030B2002100220023FCF704FB012002F051
:1042200001F92046042102F005F9012003F022FCE7
:1042300060B1022003F01EFC40B1032003F01AFC21
:1042400020B1042003F016FCA0B900BF002003F049
:1042500011FC28B1002000210022002308E000BF4B
:10426000B5F92400B5F93810B5F94C20B5F960302E
:10427000FCF714FB012002F0D5F8052003F0FAFB4F
:104280000028B9D0062003F0F5FB0028C6D1B3E71B
:10429000092003F0EFFB0028B3D1B8F97802B8F990
:1042A0007A12B7F98021B7F98231FCF72BFBB7F806
:1042B0008461ADE780B5002818BF002900D180BD1A
:1042C000002AFCD0002BFAD040F2881CC2F2000C6D
:1042D0009CF800C0BCF1050F88BF80BDDFE80CF082
:1042E0000306090C0F1200F0F5FC80BD00F06CFA1B
:1042F00080BD00F06FF980BD00F0B6F880BD00F021
:1043000043FA80BD00F070FA80BD0000B0B558B32C
:104310000446006840F28815807AC2F20005013830
:10432000C0B2022807D840F20211C000C0F2020158
:1043300021FA00F0287001F05FFC2878052888BF7A
:10434000B0BDDFE800F00603090C030F0220207463
:10435000B0BD03202074B0BD00202074B0BD01208A
:104360002074B0BD03202074B0BD000070B584B0CF
:1043700040F2A814C2F2000404F5FC71002091EC94
:10438000030A6D460390CDE901000090284600F035
:104390007DFC207C032810D104F110006FF0030194
:1043A0006A1892ED010A0431BDEEC00A10EE102A1F
:1043B0000C2920F8142FF3D152E09FED2A0A291F6F
:1043C0006FF0130091ED011A221882ED0D1AB0EE74
:1043D000C11AB4EE410AF1EE10FA00F1140001F135
:1043E0000401B8BFB0EE410A3C28EBD1B1EE001A8F
:1043F000B4EE410AF1EE10FA0EDD81EE000A6FF024
:10440000130000BF211891ED0D1A143020EE011A8F
:104410003C2881ED0D1AF5D1A4F11405642600BFE6
:1044200095ED0C0AD5ED0D0AA019FEF72FFF4836C1
:10443000B6F5C27F05F11405F2D1204600F006FA68
:1044400004F13C016FF0130091ED120A2318BDEE48
:10445000C00A1430483110EE102A3C281A87F3D1D4
:1044600004B070BD00000000B0B5002818BF0029DE
:1044700000D1B0BD1446002AFBD01D46002B08BF5A
:10448000B0BD2A4600F07EFA28689FED0B2AB0F9ED
:10449000040095ED830A01EE100AB8EEC11A21EE70
:1044A000021A30EE010ADFED050A9FED051A01F050
:1044B0002DFF84ED000AB0BDBD3706B6DB0F49C045
:1044C000DB0F494010B52DED048B9FED3D0A9FEDAC
:1044D0003D1A40F2A8146FF013004C21C2F2000400
:1044E0002218936A1430B3F902303C2802EE103AD5
:1044F000B8EEC22A22EE002A82ED0C2A04EB010358
:1045000093ED122A01F1480122EE012A82ED0B2AD5
:10451000E6D194ED070A94ED0C1A94ED113A31EEC0
:10452000402A94ED164A30EE010A30EE031A31EEBD
:10453000041ABDEE005A9FED246A21EE051A81EEA1
:10454000061A32EE032A32EE442AB5EE005AE0682B
:1045500022EE052A33EE400A30EE040A84ED7B2A6F
:1045600090ED002A606820EE050A84ED7C0A90ED4B
:10457000400A9FED168A9FED169A84ED7D1A32EE61
:10458000400AF0EE480AB0EE491A01F0BFFED4E945
:10459000021084ED880A90ED021A91ED402AF0EEA7
:1045A000480A31EE420AB0EE491A01F0AFFEE06867
:1045B00084ED890A4068C4F82802BDEC048B10BD64
:1045C0000A01DA390000FA43CDCC4C3EDB0F49C07A
:1045D000DB0F494070B52DED028B002818BF002974
:1045E00002D1BDEC028B70BD1446002AF9D01D46E5
:1045F000002BF6D02A4600F0C5F9286840F2A41531
:10460000808AC2F20005810640F2A011C2F20001C8
:1046100002D400220A7005E00A781AB901220A7051
:1046200000222A60097840F29C160129C2F2000695
:1046300016D1000715A008BF043095ED000A90EDD3
:10464000008A04F017FE95ED001A9FED122A28EE5D
:10465000000A86ED000A31EE020A85ED000A01E04B
:104660000020306095ED000A9FED0B1AB4EE410A70
:10467000F1EE10FA05DD9FED091A30EE010A85ED25
:10468000000A30682060BDEC028B70BD7CD9A03E72
:104690003333333F7C594444DB0FC940DB0FC9C07F
:1046A00010B52DED028B40F2A814C2F200040320D5
:1046B000207400F04BFF206000F0E4FEE06000F0AA
:1046C00075FF606000F03AFF9FED148A49F6C4312F
:1046D000A06004F5E670C0F60001B0EE480A00F0F4
:1046E000A5FD49F6C83104F5EE70C0F60001B0EE44
:1046F000480A00F09BFD4FF08040002304F5047C45
:104700004FF040414FF07F52CBF6C0738CE80F0062
:10471000FFF7D8FEBDEC028B10BD00BF6F12033B4C
:104720000168898ACA0502D590F82D2222B389052D
:1047300008D590F82D1229B9012180F82E120021F8
:1047400080F82C12B8B1017C427C8A4208BF7047C5
:1047500022B119B90022C0F808220BE0012A01D0C9
:10476000012903D0022A05D0022903D1D0F8202242
:10477000C0F80C224174704740F20111A0F82C12CD
:104780000028E0D1F7E70000B0B5002818BF0029E5
:1047900000D1B0BD1446002AFBD01D46002B08BF37
:1047A000B0BD2A4600F0EEF828689FED061AB0F971
:1047B000040000EE100AB8EEC00A20EE010A84EDF3
:1047C000000AB0BD0AD723BC002818BF002900D1B9
:1047D0007047002AFCD0002B08BF704700230360FD
:1047E0000B60136070470000002818BF002900D13B
:1047F0007047002AFCD0002B08BF704710B51B681B
:10480000B3F902E0B3F900C0B3F904400EEB8E0334
:104810005B0000EE103AB8EEC00A80ED000A0CEB27
:104820008C004042400000EE100A04EB840040423D
:10483000B8EEC00A400081ED000A00EE100AB8EEA2
:10484000C00A82ED000ABDE810407047B0B582B0E2
:1048500004460020CDE9000000F07EFE05460B2056
:1048600003F008F99FED3E0A38B90C2D37D8012026
:10487000A84041F20501084231D09FED411A04F1F0
:1048800084006FF0470100BF421892ED122A4831B0
:10489000B0EEC22AD82931EE021AF5D1B4EE401A90
:1048A000F1EE10FA19DD80EE010A94ED211A94ED73
:1048B000332A94ED453A94ED574A20EE011A84EDDF
:1048C000211A20EE021A84ED331A20EE031A20EE8C
:1048D000040A84ED451A84ED570A02B0B0BD01A860
:1048E000694600F0E1FD9DED000A9FED1E1AB4EE51
:1048F000410AF1EE10FA0DDAB1EE042AB4EE420AE2
:10490000F1EE10FA23DD80EE010A9FED191A20EE78
:10491000010AB2E79DED010A9FED141AB4EE410AB7
:10492000F1EE10FA16DD9FED132AB4EE420AF1EE15
:1049300010FA12DA32EE400A80EE010A9FED0E1AEA
:104940009FED0B2A20EE010A30EE020A95E79FED5B
:104950000B0A92E79FED040A8FE79FED050A8CE7AB
:1049600000007A470000484200A00C4700002042A7
:1049700000007A460000A04200409C460000C84467
:104980000000000070B52DED048B002978D006469C
:10499000002875D01546002A72D00C4629689FED74
:1049A0003A1AB1F900009FED398A00F10A0292B279
:1049B00000EE100A888AB8EEC00A142A20EE010A16
:1049C00088BFB0EE408AC20717D149889FED301AE0
:1049D00001F10A0209B292B200EE101AB8EEC00A52
:1049E0009FED2C9A142A20EE010A88BFB0EE409A5F
:1049F000810706D505F5057101E005F5047191ED16
:104A0000009A410704D4000706D505F5077001E0B8
:104A100005F5067090ED008A05F5E670B0EE490ADE
:104A200000F0E8FB05F5EE70B0EE480A00F0E2FB9E
:104A30009FED190AB4EE409AF1EE10FA09DA9FEDF3
:104A4000170AB4EE409AF1EE10FAC4BF0020C5F880
:104A5000D0019FED130AB4EE408AF1EE10FA09DAA4
:104A60009FED100AB4EE408AF1EE10FAC4BF0020A8
:104A7000C5F8E001D5F8D0013060D5F8E00120603C
:104A8000BDEC048B70BD00BF0AD7A3BB0000008043
:104A9000A69BC43B0000000090C2753D90C275BD4E
:104AA000CCCC4C3DCCCC4CBD10B52DED028B84B0A4
:104AB00040F2A8140020C2F200040390CDE90100E6
:104AC00003A802A901AA2346FFF7F4FB2068807A15
:104AD000012847D0022800F08280032840F0888017
:104AE000606890ED400AB1EE400A04F0C3FB6068D4
:104AF000B0EE408A90ED401AB1EE410A04F012FB8C
:104B00009DED031A9DED022A20EE013A20EE020AE5
:104B100028EE011A30EE411A28EE024A9DED010AF4
:104B200084ED7F1ADFED350A9FED351A33EE043A36
:104B300084ED7E3A01F0EAFB6068F0EE400A90ED09
:104B4000400A04F5C270C4ED820AFEF79FFBB1EE85
:104B5000402A94ED7E0A94ED841AD4ED850A84ED02
:104B6000802A2DE0606890ED400AB1EE400A04F022
:104B700081FB6068B0EE408A90ED401AB1EE410AC8
:104B800004F0D0FA9DED031A9DED023A20EE012AC1
:104B900028EE034A20EE030A28EE011A32EE042A18
:104BA00030EE410A94ED841AD4ED850A84ED7F0A33
:104BB0004FF08140B0EE420A84ED7E2AC4F8000234
:104BC00000F0A0FB94ED7F2A94ED861AD4ED870ABD
:104BD00084ED7E0AB0EE420A00F094FB06E09FED01
:104BE000060A0020C4F80002C4F8F80184ED7F0A28
:104BF00004B0BDEC028B10BD00000000DB0F49C00B
:104C0000DB0F494080B540F2A810C2F20000FFF768
:104C10007DFB80BD82B00020019040F2651003F062
:104C2000B9F9FFF73DFD02E0022003F0B3F90120DE
:104C300002F020FF0028F7D1022002F01BFF00281D
:104C4000F2D1032002F016FF0028EDD1042002F07B
:104C500011FF0028E8D140F2A81440F29816C2F2E1
:104C6000000401ADC2F20006FFF7CCFF2046FFF7BB
:104C700057FDFFF727FCFFF717FF2846022101F039
:104C8000D9FB002002F0BAFF3060EDE79FED0F2A5C
:104C90009FED0F5A30EE203A21EE022A30EE604AA4
:104CA00021EE051A30EEC00A34EE024A32EE432AF3
:104CB00033EE013A30EE010A80ED002A80ED014A20
:104CC00080ED023A80ED030A704700BFEB5138BE19
:104CD000AF4761BE002818BF002900D17047002AE5
:104CE000FCD0002B08BF7047002303600B601360EB
:104CF000704700002DE9F04F83B040F23865C2F2F2
:104D00000005884695F87412002405291FD0002953
:104D10005ED1012085F87402D5F83401EA68D5F82F
:104D20003C120088D5F814311288C5F86412A5F831
:104D30007002C5F85C32A5F86C22C5F86812A5F8B7
:104D40007202C5F86032A5F86E22002440E0DDE969
:104D50000CBA41461E4617468146CDF800B0CDF844
:104D600004A0FFF769F897ED000A9FED1B1A9FED6D
:104D70001B2A30EE010A87ED000A96ED000AB9F809
:104D8000001030EE020A86ED000A9BED000AA5F83D
:104D9000021130EE010A8BED000A9AED000AB8F814
:104DA000001030EE020A8AED000A386885F8744275
:104DB000C5F8040130680124C5F80801DBF80000DB
:104DC000A5F82A12C5F82C02DAF80000C5F830025E
:104DD000204603B0BDE8F08FCDCCCCBDCDCCCC3DD2
:104DE00045F2A440C2F200000021016070470000BB
:104DF00082B001F02DFB41F2137449F6244840F6CD
:104E0000544640F6C057C2F20004C0F60008C2F291
:104E10000006C2F200070FF24C0901AD019000BF7D
:104E2000204641462A22FBF7FCF93046214629223A
:104E30004FF6FF73FDF7D8FE384603F069F92046B8
:104E400049463A4604F046F982B2304621464FF6CA
:104E5000FF73FDF7C9FE28464FF4FA7101F0EAFA34
:104E6000DEE700BF25730D0A00000000F0B581B039
:104E700040F20C4700EBC006C2F2000757F82600CC
:104E800007EB8605686003F0C7FE2C4654F8101F38
:104E900047F826004A0042BF21F080412160E860C7
:104EA000A86950B18047216868B1286A41F0204163
:104EB000216030B1804701B0F0BD206820F0004093
:104EC000206001B0F0BD21F00040206001B0F0BDD5
:104ED000B0B549F64C21C0F6000140F20C4C043943
:104EE0004FF0000EC2F2000C002300BF0CEB0304D5
:104EF0008A8825694CF8030062F30B0531F8062F08
:104F000025616FF31F326FF3173545EA02324D8882
:104F1000226122F07F4242EA4562243342F061423C
:104F2000B3F5B47FC4F818E0C4F81CE0C4F820E07E
:104F30002261C4F814E06060A060E060D6D1B0BD2A
:104F400001F086FA40F2004AC2F2000ACAF80000F4
:104F500001F07EFA40F20442DAF80010C2F20002D8
:104F600010600846FFF7B4FF392001F05BFA40F209
:104F7000FC3940F20C449FED3E8AC2F20009C2F2B5
:104F800000044FF0010B0EE040F20440C2F20000BA
:104F90000A2101F04FFA002002F030FE40F20841F1
:104FA000C2F20001086001F053FACAF80000D4F818
:104FB00078010A2120F0C04000274FF0000889F84E
:104FC0000010C4F8780109E06BF35E75056100BF5D
:104FD0002437B7F5B47F08F10108D5D0E019056989
:104FE000EA01F5D5DAF80030E25929469E1A6FF346
:104FF0001F318E4220D9A9005EBF45F0C04101613A
:10500000836099F80010026901EBC10104EB810192
:105010000969C2F34362C1F343618A4288BF89F8D8
:105020000080D4F8781141F0C041C4F87811C0690B
:105030000028CDD08047CBE7C168591AC5F30B33A0
:105040009942C1D3416825F0C043B5F1FF3FD8BFB5
:1050500003F100538A420361BAD9511A00EE101AC3
:10506000B8EE400A88EE000A10EE101A4161AFE770
:1050700000007A44F0B581B0F0B1044640F690707B
:10508000C2F200000068A0421FD002F087FE40F686
:105090009870C2F200006569076840F6A070C2F21D
:1050A0000000066802F09EFEBD424FF0020018BFED
:1050B000B5420DD101B0F0BD4FF0500080F3118822
:1050C000BFF36F8FBFF34F8FFEE7002001B0F0BD3D
:1050D00045F6F430C2F2000085420CD045F6084196
:1050E0000120C2F20001002D08BF04208D4208BF3C
:1050F000042001B0F0BDA06A10B1022001B0F0BDE3
:1051000094F85C100320012908BF022001B0F0BD13
:1051100080B5EFF3108CEFF3108172B6416803692C
:105120008B4284BF016801610269D0E9023112F843
:1051300001EB01330139C0E9023102618CF31088BF
:10514000704680BD0346881801384FF0000CC3E953
:1051500000100020C3E9022C19615961704700005A
:105160002DE9F0470546EFF31089EFF3108072B692
:1051700021B3AC6814B32F4657F8140F0E4657F8F6
:10518000101C884284BF2868686169686869944215
:10519000A1EB000101F1010AC8BF1446544513DD1B
:1051A00031465246A4EB0A08FBF73BF8286806EBA9
:1051B0000A014246FBF735F82F460AE089F31088CA
:1051C0004FF0FF30BDE8F08731462246FBF729F863
:1051D000A046386840446861D5E90201001B2144BB
:1051E000C5E9020189F310882046BDE8F087000078
:1051F000C06870478168C26801EE101A02EE102A7A
:1052000031EE023A81EE031A82EE032A426810EE72
:10521000101A03EE102A016023EE011A22EE000A92
:1052200031EE000A10EE101A4160704710EE102A9D
:10523000C260096881600021016041607047000020
:1052400010B586B00C4600F0C7F80390002001901E
:105250000220CDE90440FCF77BFB01A86946FCF77E
:10526000CFFAFCF727FB06B010BD000080B503465F
:10527000920008461946FAF7D4FF80BD2DE9F043A5
:1052800081B0144688460646FCF762FB40F2CC57D4
:10529000C2F2000730463E6000F01AF940F2C859E9
:1052A000C2F2000940F2C05540F2C456C9F80000ED
:1052B000C2F20005C2F200060020C5F8008030608E
:1052C0003968D9F80000814213D8286800230268A1
:1052D0000220FCF7F9FA70B93868296804303860A0
:1052E000081D31682860481CA0423060E8D10024C5
:1052F00002E0002400E0FF24FCF7DCFA60B201B019
:10530000BDE8F083B4EE600AF1EE10FA08DBB4EE0B
:10531000410AF0EE410AF1EE10FAD8BFF0EE400A71
:10532000B0EE600A7047000010B52DED028B41F21F
:105330005C54C2F20004E068D4F87C11B0F90200B9
:10534000002900EE100A20A008BF0430D0ED000AAA
:105350001FA008BF043090ED008AB8EEC00A04F127
:10536000A400FDF793FFBDEEC00A10EE100A2169FC
:10537000A4F88001B1F90200F0EE480A00EE100A2C
:10538000B8EEC00A04F1EC00FDF780FF2078BDEE16
:10539000C00A10EE101A0328A4F882110ED00228B9
:1053A0000FD194ED5A0AD4ED5D0A04F15C00FDF7CB
:1053B0006DFFBDEEC00A10EE100A00E00020A4F858
:1053C0008401BDEC028B10BD008089450000000007
:1053D000008089C50000000000F17841B1F5803FF0
:1053E0003CBF880B704740F60101B1EB104F04BF82
:1053F000042070470022CFF2FE7202F100610140EA
:105400008818B0F5202F3EBF052101EB50407047B2
:105410000020C0F6010000F530220B20914208BFA9
:105420000A20704745F2A440C2F2000000687047AD
:1054300080B598B181B149F64E4C0138C0F6000CE8
:1054400010F801EFD3B283EA0E033CF8133092B2A6
:10545000013983EA1222F3D190B280BD4FF6FF7278
:1054600090B280BD61B149F6A02C0138C0F6000CA5
:1054700010F8013FD2B25A401CF802200139F7D18E
:105480001046704740F29850C2F20000704700008A
:1054900000F0030040F2E00100EB8000C2F20001E6
:1054A00001EB40007047000040F68C62C2F200023F
:1054B00053681289036000EE102AB8EE400A81EDAD
:1054C000000A704740F6D800C2F2000070470000A2
:1054D0004FF6FF7120EA0101B1F1006F05D100F52F
:1054E000804043F6FF718843704740F60101B1EBFD
:1054F000104F40F20001C0F6010104BF01F58030F9
:1055000070470023CFF2FE7303F100620240D0180F
:10551000B0F5202F3CBF02F50030704701F5302375
:1055200001F5E0209A4208BF01F5502070470000C5
:1055300040F23010C2F200003230704740F2386062
:10554000C2F2000000F59A707047000041F234008A
:10555000C2F200007047000041F20050C2F20000A9
:105560000078704741F20052C2F200029289028034
:1055700040F68C60C2F2000080890880704700000D
:1055800040F2301100EB8000C2F2000101EB40005C
:105590003C30704740F2E000C2F200002830704713
:1055A00040F23010C2F200002830704740F23860FC
:1055B000C2F200000C30704710B52DED028B0028B0
:1055C00045D0B0EE418AC0ED030A80ED040A30EE0A
:1055D000C00ADFED220A9FED221A044600F096FE73
:1055E00094ED002A94ED013A20EE022A84ED082A77
:1055F00094ED092A84ED050A94ED024A20EE030A8F
:1056000094ED071A32EE000A84ED090A24EE080A26
:1056100004F1240084ED0A0AB0EE410AFEF7F8FB1B
:1056200094ED081A94ED092A94ED0A3A94ED060ACD
:1056300031EE021A31EE031A04F12C0084ED0B1A3C
:10564000FEF7E6FB94ED0B0ABDEC028B10BD9FED5F
:10565000020ABDEC028B10BD00000000DB0F49C048
:10566000DB0F4940002808BF70470021C0E9031143
:105670004161C0E90811C0E90A117047002808BF5C
:105680007047002180ED001AC0E90111C0E9041142
:1056900080ED060AC0ED070A70470000F0B581B042
:1056A000002818BF002901D101B0F0BD1446002A1E
:1056B000FAD005462068002782889FED4F1A531DB7
:1056C0009BB20A2B98BF3A46C38812B25E1DB6B28F
:1056D0000A2E88BF1F4600EE102AB0F90C209FED5D
:1056E000473A02EE102AB8EEC00AB8EEC22A20EEFF
:1056F000010A22EE032A3BB230EE020AB0F90E7024
:1057000085ED000A00EE103AB8EEC00A20EE010A5C
:1057100001EE107A9FED3A2AB8EEC11A21EE021A74
:1057200031EE000A81ED000A407D40F20E6740F242
:105730000C668007C2F20007C2F2000616D5388850
:10574000800513D4307888B994ED450A9FED2D1A61
:10575000DFED2D0A012030EE010A307000F0D6FD99
:1057600040F20860C2F2000080ED000A2068317843
:10577000808A012938801ED140F20860C2F2000000
:1057800090ED000A94ED451ADFED1F0A30EE410A54
:105790009FED1C1A00F0BAFD1CA0B5EE400A95ED75
:1057A000001AF1EE10FAC8BF043090ED000A31EE95
:1057B000000A85ED000A307801287FF475AF40F2C9
:1057C0000860C2F2000090ED000A94ED451ADFED8A
:1057D0000E0A30EE410A9FED0B1A00F097FD9FED87
:1057E0000D1AB0EEC00AB4EE410AF1EE10FABCBFD9
:1057F0000020307001B0F0BD9C5349B6ACC5A7B8CD
:10580000ACC52738DB0F4940DB0F49C00AD723BDA1
:105810000AD7233D0AD7233C002808BF704710B59C
:1058200090ED431ADFED060A31EE000A9FED051AEE
:10583000044600F06BFD84ED430ABDE8104070475C
:10584000DB0F49C0DB0F494010B52DED028B40F254
:105850003864C2F2000494ED451A94ED462AB0EE85
:10586000408A32EE410ADFED1E0A9FED1E1A00F05B
:105870004DFD94ED431A94ED412A30EE013A33EE9A
:10588000083AB4EE423AF1EE10FA09DDB5EE408A7C
:10589000F1EE10FAC4BF32EE411A31EE408A0FE049
:1058A000B5EE408AF1EE10FA0ADA94ED422AB4EE2F
:1058B000423AF1EE10FABCBF32EE411A31EE408AA4
:1058C00094ED460ADFED060A9FED061A38EE000A4F
:1058D00000F01CFD84ED460ABDEC028B10BD00BF3C
:1058E000DB0F49C0DB0F494080B5002818BF0029F5
:1058F00000D180BD002A08BF80BD40F21063C2F213
:1059000000031B78022B05D0012B06D043B900F011
:10591000BDFB80BD00F0B6F880BD00F027FA80BD69
:10592000FFF7BCFE80BD0000002808BF704710B51F
:10593000044600F017F840F21060C2F20000007850
:10594000022806D8C0004FF4007121FA00F0014689
:1059500001E00221012084F8000184F82812BDE84A
:1059600010407047F0B581B050B140F21065C2F2FE
:10597000000504462878022804D194F8740208B17E
:1059800001B0F0BD94F87402012804D1002002F0A7
:1059900071F800286CD02878012847D194ED430A8B
:1059A0009FED351A40F21466C2F2000630EE011A7D
:1059B0009FED320A3088B0EEC11AB4EE401A40F2C0
:1059C0001267411CF1EE10FAC2F20007318012DAC0
:1059D00094ED8F1A9FED2A2A31EE021AB0EEC11A09
:1059E000B4EE401AF1EE10FA05DA388863289CBF4D
:1059F0000130388006E089B241F26F7291429CBF5B
:105A000002303080308841F26F7188420BD838887C
:105A1000632808D82068807A022804D0002002F089
:105A200029F80028ACD00020388030802068807AA7
:105A30000138C0B2022805D8C0004FF0031121FA86
:105A400000F028700020002402F014F8002840F232
:105A5000166018BF2C70C2F20000017821B92978B5
:105A600000291CBF012129702978017001B0F0BD07
:105A70000220287001B0F0BDA059EFBFCDCCCC3DC5
:105A80002F7B873E80B5002818BF002900D180BD3C
:105A9000002AFCD092F874C2ACF1010EBEF1040FE2
:105AA000F5D8DFE80EF0037B294E74000023C4F222
:105AB000FA530B600021016092ED910A9FED4D1A9F
:105AC000B4EE410AF1EE10FAE1DA40F22C60C2F2D3
:105AD0000000018801318BB2B3F5FA6F0180D6D98D
